:100000000C942A000C9434000C9434000C943400AA
:100010000C9434000C9434000C9434000C94340090
:100020000C9434000C9434000C9434000C94340080
:100030000C9434000C9434000C9434000C94340070
:100040000C9434000C9434000C9434000C94340060
:100050000C94340011241FBECFE5D8E0DEBFCDBF25
:100060000E944E000C9466000C9400008BBB969886
:10007000959A83ED90E30197F1F700C00000959801
:100080001BBA08958BBB969A959A83ED90E30197DE
:10009000F1F700C0000095981BBA08958FEF8ABB56
:1000A00081BB83ED90E30197F1F700C0000081E090
:1000B0000E94360088E30E9436008EE00E943600DF
:1000C00081E40E94420080E090E00895F894FFCF20
:00000001FF
