:100000000C942A000C943F000C943F000C943F0089
:100010000C943F000C943F000C943F000C943F0064
:100020000C943F000C943F000C943F000C943F0054
:100030000C943F000C943F000C943F000C943F0044
:100040000C943F000C943F000C943F000C943F0034
:100050000C943F0011241FBECFE5D8E0DEBFCDBF1A
:1000600010E0A0E6B0E0E6EDF0E002C005900D92F1
:10007000AA36B107D9F70E9441000C9469000C948C
:100080000000DF93CF93CDB7DEB729970FB6F89472
:10009000DEBF0FBECDBFDE011196E0E6F0E089E0E5
:1000A00001900D928150E1F78FEF87BBFE013196F1
:1000B000CE010A96219128BB2FE739EA43E021506F
:1000C00030404040E1F700C00000E817F90791F721
:0600D000FFCFF894FFCF02
:0A00D600FCFDFEFF00010203040020
:00000001FF
