:100000000C942A000C943F000C943F000C943F0089
:100010000C943F000C943F000C943F000C943F0064
:100020000C943F000C943F000C943F000C943F0054
:100030000C943F000C943F000C943F000C943F0044
:100040000C943F000C943F000C943F000C943F0034
:100050000C943F0011241FBECFE5D8E0DEBFCDBF1A
:1000600010E0A0E6B0E0E2E3F2E002C005900D92FD
:10007000AC36B107D9F70E946C000C9417010C94B0
:10008000000088BB9698959A87E893E10197F1F76D
:1000900000C0000082B3807C82BB18BA089588BB80
:1000A000969A959A87E893E10197F1F700C00000CE
:1000B00082B3807C82BB18BA0895CF93DF93EC01A2
:1000C0008881882331F021960E944F0089918823EE
:1000D000D9F7DF91CF910895AF92BF92CF92DF927F
:1000E000EF92FF920F931F93DF93CF9300D00F9265
:1000F000CDB7DEB78FEF87BB1ABA81BB83ED90E334
:100100000197F1F700C0000087B1806C87B986B114
:10011000876A86B981E00E94410083ED90E30197F0
:10012000F1F700C0000088E30E94410083ED90E3F6
:100130000197F1F700C000008FE00E94410083EDBD
:1001400090E30197F1F700C00000369A0F2EF0E619
:10015000CF2EF0E0DF2EF02D7E010894E11CF11C83
:100160000F2EF9E6AF2EF0E0BF2EF02D04B115B141
:10017000C6010E945D0088EC0E944100C80196956E
:10018000879596958795B7014AE050E00E94D20086
:10019000C7010E945D00C5010E945D0080E80E94C9
:1001A0004100E4CFFB019F01E8944230C4F04532A6
:1001B000B4F44A3029F497FB1EF4909581959F4F33
:1001C000642F77270E940301805D8A330CF0895DDC
:1001D0008193CB010097A1F716F45DE25193108251
:1001E000C9010C94F300DC01FC01672F71917723A6
:1001F000E1F7329704C07C916D9370836291AE17E2
:10020000BF07C8F30895AA1BBB1B51E107C0AA1F73
:10021000BB1FA617B70710F0A61BB70B881F991FA7
:100220005A95A9F780959095BC01CD010895F89451
:02023000FFCFFE
:0C02320054656D702863293D00202000F9
:00000001FF
