:100000000C942A000C9434000C9434000C943400AA
:100010000C9434000C9434000C9434000C94340090
:100020000C9434000C9434000C9434000C94340080
:100030000C9434000C9434000C9434000C94340070
:100040000C9434000C9434000C9434000C94340060
:100050000C94340011241FBECFE5D8E0DEBFCDBF25
:100060000E9436000C9446000C9400008FEF8ABB6F
:100070001BBA8FE39DE0A3E081509040A040E1F7E0
:1000800000C000008BB380958BBBF3CFF894FFCFFB
:00000001FF
