:100000000C942A000C9434000C9434000C943400AA
:100010000C9434000C9434000C9434000C94340090
:100020000C9434000C9434000C9434000C94340080
:100030000C9434000C9434000C9434000C94340070
:100040000C9434000C9434000C9434000C94340060
:100050000C94340011241FBECFE5D8E0DEBFCDBF25
:100060000E9436000C944E000C940000A39A88E085
:1000700094E490FF02C0AB9A01C0AB982FE33DE03F
:1000800043E0215030404040E1F700C00000815083
:1000900011F09695EECF80E090E00895F894FFCFB0
:00000001FF
